:0400000080314C28D7
:100008007E14803120007F08FD00911E14282100F5
:10001800911E1428200091128431F724803147283A
:100028002000111E20282100111E20282000111256
:1000380087314827803147282000911D25289111B4
:100048004728111F33281113210011130130FC0018
:100058007C08F407031D47280130F40247280B1DCC
:100068003A280B1187318E2780314728111C4428E4
:10007800111087318B2780318531A225803147289F
:100088000000000000007D082000FF007E1009002D
:1000980080314E281030840023308500E030FE0087
:1000A8000030FF00873130278031F001F101F20183
:1000B800F301F401F501F6013930840000308500C0
:1000C8001230FE000030FF00873130278031A03029
:1000D8008400003085005030FE000030FF0087317A
:1000E80030277E1020008331D32B8731522780316F
:1000F80020002208B0002108AF005B30AD00B80135
:100108000030A03E860087012D0881005230AD00E6
:100118000130AE002E08B8073808A03E86008701D7
:100128002D0881003A30AD000130AE002E08B80726
:100138003808A03E860087012D0881002F08A100FD
:100148003008A200A301A4010030A8000030A700D5
:100158000430A600E330A5008531722580312000E7
:100168002408B4002308B3002208B2002108B10013
:100178003208AD002D08B1003308AD002D08B200DB
:100188003208A2003108A1008431462480312000C1
:100198002108B5002208B6002308B7002030AD00BA
:1001A8000130AE002E08B8073808A03E8600870147
:1001B8002D088100360E0F392A3E8400823003183C
:1001C800013E85000008AD000130AE002E08B807DA
:1001D8003808A03E860087012D0881002E30AD002A
:1001E8000130AE002E08B8073808A03E8600870107
:1001F8002D08810036080F392A3E84008230031802
:10020800013E85000008AD000130AE002E08B80799
:100218003808A03E860087012D088100350E0F3969
:100228002A3E840082300318013E85000008AD0094
:100238000130AE002E08B8073808A03E86008701B6
:100248002D08810035080F392A3E840082300318B2
:10025800013E85000008AD000130AE002E08B80749
:100268003808A03E860087012D0881005630AD0071
:100278000130AE002E08B8073808A03E8600870176
:100288002D0881000A30A1000030A2003008A40027
:100298002F08A30086317926803120002208B0007B
:1002A8002108AF002030AF071C30B03D0630B03613
:1002B800AF0C890B5B2901303002003003192F0283
:1002C800031C6A29FF30AF000030B0002F08AD00D2
:1002D800AE01AD35AE0DAD35AE0DAD35AE0D2D085B
:1002E800B1002E08B2003208A2003108A100843102
:1002F8004624803120002108B5002208B6002308D2
:10030800B7002030AD000130AE002E08B80738081D
:10031800A03E860087012D088100360E0F392A3E3F
:10032800840082300318013E85000008AD000130CA
:10033800AE002E08B8073808A03E860087012D08B1
:10034800810036080F392A3E840082300318013EA6
:1003580085000008AD000130AE002E08B807380847
:10036800A03E860087012D088100350E0F392A3EF0
:10037800840082300318013E85000008AD0001307A
:10038800AE002E08B8073808A03E860087012D0861
:10039800810035080F392A3E840082300318013E57
:1003A80085000008AD000130AE002E08B8073808F7
:1003B800A03E860087012D0881007530AD00013010
:1003C800AE002E08B8073808A03E860087012D0821
:1003D80081007330AD000130AE002E08B807380830
:1003E800A03E860087012D0881005D30AD000130F8
:1003F800AE002E08B8073808A03E860087012D08F1
:1004080081000A30AD000130AE002E08B807380868
:10041800A03E860087012D0881000D30AD00013017
:10042800AE002E08B8073808A03E860087012D08C0
:1004380081000130AD002D08B8073808A03E8600BD
:10044800870181012F088631EE26080030343134C7
:100458003234333434343534363437343834393448
:1004680041344234433444344534463400345B34F4
:1004780056343A3420344B3441342D343034323409
:100488003734433420343134363446343134383414
:10049800343437342034763432342E3430342E34F5
:1004A8003134203432343034313436343034343426
:1004B800303431345D340A340D3400345B3448341C
:1004C8003A34203448342D3465346C347034203454
:1004D80056342D3465347234733469346F346E3461
:1004E800203445342D34633468346F342034523426
:1004F8002D34653470346F34723474345D340A3496
:100508000D3400345B3445343A3420344D3465348A
:100518007334733461346734653420346534633438
:1005280068346F342034643465346134633474342B
:100538006934763461347434653464345D340A342F
:100548000D3400345B3445343A3420344D3465344A
:1005580073347334613467346534203465346334F8
:1005680068346F34203461346334743469347634D5
:1005780061347434653464345D340A340D340034C1
:100588005B3452343A3420345234653470346F3426
:100598007234743469346E346734203464346534A6
:1005A8006134633474346934763461347434653452
:1005B80064345D340A340D3400345B3452343A34D4
:1005C80020345234653470346F347234743469347E
:1005D8006E34673420346134633474346934763467
:1005E80061347434653464345D340A340D34003451
:1005F8005B343F343A3420344E346F34743420340E
:1006080069346D3470346C3465346D3465346E34EB
:100618007434653464345D340A340D3400345B3426
:100628003F343A3420344E346F34743420347234C6
:10063800653463346F3467346E3469347A346534BE
:1006480064345D340A340D3400342000491C572BBF
:10065800AB014A082B0203184F2B2B08C83E860013
:1006680087010A3001060319492B2B08C83E86006A
:1006780087010D3001060319492B2B08C83E860057
:10068800870101088431B624833101302000AA0093
:100698002A08AB072D2B0A308431B62483310D305C
:1006A8008431B62483315B30210048060319BE2B00
:1006B800D02B62302000A4008230A5008631952618
:1006C8008331D02B3B302000A4008230A500863136
:1006D80095268331D02B200049080139AA00013022
:1006E800AA0649082A06FE392A06C900491C842B8D
:1006F800A630A4008230A500863195268331D02B00
:1007080086302000A4008230A500863195268331EA
:10071800D02B2000490C0139AA000130AA06AA0DE5
:1007280049082A06FD392A06C900C91CA32BE1304D
:10073800A4008230A500863195268331D02BC430A1
:100748002000A4008230A500863195268331D02B65
:10075800FC302000A4008230A50086319526833124
:10076800D02B13302000A4008330A50086319526B5
:100778008331D02B21004908423A0319AC2B073AA0
:1007880003196F2B0D3A03195D2B1A3A03198D2B98
:10079800043A0319662BB52B873182270800873165
:1007A800852783312000CB01CB0ACC01CC0ACD01AF
:1007B800CD0AC101C201C301F401C401C5018531DB
:1007C800A225833187317F27833187318B27833176
:1007D800212C87319427833101302000C40244083A
:1007E8000319212C0000212C873170278331013017
:1007F8002000C50245080319212C0000212C87314F
:10080800732783310130F40274080319212C000086
:10081800212C87317C27833101302000C102410817
:100828000319212C0000212C8731792783310130CD
:100838002000C2024208031D000087318827833147
:1008480020004408031DED2B20004508031DF82B4C
:100858007408031D032C20004108031D0D2C2000E3
:100868004208031D182C200043080319212C873146
:100878007627833101302000C30243080319212C55
:100888000000212C00302000A7000030A800003014
:10089800A90027302202103003192102031C712CF1
:1008A8001030A1022730A23B0030A7070030031800
:1008B8000130A807013003180230A9074D2CE83091
:1008C800A1020330A23B0030A707103003181130F3
:1008D800A807003003180130A90703302202E830C6
:1008E80003192102031C872C632C6430A1020030F9
:1008F800A23B0030A707013003180230A8070030D8
:1009080003180130A90700302202643003192102BC
:10091800031C9D2C792C0A30A1020030A23B103018
:10092800A707003003180130A8070030031801306A
:10093800A907003022020A300319210203188F2C5C
:100948002108A4002208A500A6012408A707250855
:10095800A83D2608A93D2708A1002808A2002908C3
:10096800A30008002000A30021001112751CCC2C44
:1009780001302000A1002108C807031DC52C013043
:10098800C8023F0886004008870023088100080045
:1009980073082000C0007208BF0072088600730840
:1009A8008700230881000130F2070030F33D7F30D3
:1009B800A1002330A20073082202031DE52C72084F
:1009C80021020318EB2C2330F3001030F2007108D9
:1009D8007306031DF12C7008720603197514F510BF
:1009E80021001116080023009D1C062D1D121D163E
:1009F8000130FA007A082000C707031D08000130FB
:100A0800C70208001D1D162D1908FA007A08FB00F8
:100A18000130FA007A082000C607031D08000130DB
:100A2800C6020800751D202D0130FA007A08F60765
:100A3800031D202D0130F6021908FA007A08FB0080
:100A48007B088531362584315D307B06031D08001F
:100A58000130FA007A082000C507031D080001309C
:100A6800C5020800F900751D492D0130F700770807
:100A7800F607031D412D0130F60220003B088600D1
:100A88003C08870079088100080020003E08BC0067
:100A98003D08BB003D0886003E08870079088100B4
:100AA8000130BD070030BE3DEF30F7002330F800BD
:100AB8003E087802031D622D3D0877020318682D51
:100AC8002330BE008030BD003A083E06031D6E2D5F
:100AD80039083D0603197515F51108000030200086
:100AE800AC000030AB000030AA000030A900211C87
:100AF800852D2508A9072608AA3D2708AB3D280803
:100B0800AC3D0130A535A60DA70DA80D890B862D86
:100B18000130A436A30CA20CA10C890B8D2D24083E
:100B2800230422042104031D7B2D2C08A4002B0878
:100B3800A3002A08A2002908A1000800013020000B
:100B4800CB02031DB12DCB01CB0A0130A100210836
:100B5800C107031DB12D0130C1020130CC02031DB4
:100B6800C12D0A30A1002108CC000130A1002108C4
:100B7800C207031DC12D0130C2020130CD02031D81
:100B880008006430A1002108CD000130A10021082F
:100B9800C307031D08000130C302080020008C01B0
:100BA8008D01F53021008C00FF308D0023008C0171
:100BB80080308D00803022009D0001309E00210091
:100BC800910120009101C0308B0087316227853167
:100BD8008731822785318631C62685312000491024
:100BE800C91421001A1B1A1CF52D3B302000A40043
:100BF8008230A500863195260800F51D052E0030A7
:100C080008002000390886003A0887000108A1007A
:100C18002108A3000130B9070030BA3DEF30A10028
:100C28002330A2003A082202031D1C2E3908210293
:100C38000318222E2330BA008030B9003E083A0645
:100C4800031D282E3D0839060319F51575112308CB
:100C58000800F51C312E0030080070088600710865
:100C680087000108F7007708F9000130F007003025
:100C7800F13D7F30F7002330F80071087802031D3A
:100C8800472E7008770203184D2E2330F1001030DC
:100C9800F00073087106031D532E720870060319BD
:100CA800F5147510790808002000C91C0800A50172
:100CB8005830A4002408A60028302502031808008C
:100CC8002608031908002508A03E860087010108A8
:100CD800A4002408A60026088431B62486310130F1
:100CE8002000A4002408A507602E2000A501A60165
:100CF800211C822E2308A5072408A63D0130A33510
:100D0800A40D890B832E0130A236A10C890B882EE5
:100D180021082204031D7C2E2608A2002508A10014
:100D2800080020002508A7002408A600A40A031923
:100D3800A50A26088400270885000008A8002808B6
:100D4800A900290803190800200029088431B624BD
:100D58008631952E22000C0C2000A100A10C210C3C
:100D68000139A1000130A106A10DA10DA10D22009C
:100D78000C0820002106F739210622008C00873153
:100D880068270800443023009B009C0148309F00DE
:100D980024309E0090309D0087315B278631873153
:100DA80001278631873111272100911608008631E5
:100DB800012686312000AC002C08AD002D088731B3
:100DC800212786315D3020002D06031DDB2E83315F
:100DD800292308002000A200D5302100950020001A
:100DE8002203FF3AFF3EA1002108A3002308950033
:100DF80022008C140B118B1608002330F1001030E0
:100E0800F0002330F3001030F20023302000C0003F
:100E18007F30BF007510F514080023302000BA0099
:100E28008030B9002330BE008030BD002330BC00C4
:100E3800EF30BB007511F51508002000A20022084C
:100E4800A1004A08C83E86008701210881000130B8
:100E5800A1002108CA07080064008001013101309F
:100E6800FE020030FF3B7F087E0403190034312F57
:100E7800303020009800E0309600B1309700210013
:100E88001114200018140800F51C4D2F2100111210
:100E9800080086312D2623009A00080021001C082E
:100EA8002000A20021001B082000A10008007512E4
:100EB8002000C701C601F601C80108001930210049
:100EC8009D00A0309E000800210011179D14080005
:100ED80070302100990008008631DB260800803137
:100EE80079200800863158260800873195270800A0
:100EF8008631AE2608008531D22508002000CA01B7
:100F0800080087316C270800873196270800873149
:100F18003C27080087319127080022008C10080020
:060F2800080008000800AB
:020000040001F9
:04000E00E4CFFFDB61
:00000001FF
