:1000000080314C28080008007E14803120007F08D1
:10001000FD00911E14282100911E14282000911229
:1000200085319125803147282000111E202821008C
:10003000111E2028200011128731F3278031472814
:100040002000911D252891114728111F33281113D5
:10005000210011130130FC007C08F407031D472820
:100060000130F40247280B1D3A280B118F31B927B4
:1000700080314728111C442811108F31BC27803152
:1000800086316F26803147280000000000007D087F
:100090002000FF007E10090080314E2810308400BF
:1000A00023308500E030FE000030FF008731DB2781
:1000B0008031F001F101F201F301F401F501F601E3
:1000C00039308400003085001230FE000030FF001F
:1000D0008731DB278031A03084000030850050302C
:1000E000FE000030FF008731DB277E1020008431C6
:1000F0006D2C8F31F727803120002208B4002108B1
:10010000B3005B30AD00B8010030A03E860087012F
:100110002D0881005230AD000130AE002E08B80726
:100120003808A03E860087012D0881003A30AD00D6
:100130000130AE002E08B8073808A03E86008701BF
:100140002D0881003308A1003408A200A301A401F6
:100150000030A8000030A7000430A600E330A5005E
:1001600086313F26803120002408B2002308B100E8
:100170002208B0002108AF003008AD002D08AF0004
:100180003108AD002D08B0003008A2002F08A100F2
:100190008431E024803120002108B5002208B60017
:1001A0002308B7002030AD000130AE002E08B8079C
:1001B0003808A03E860087012D088100360E0F39D1
:1001C0004A3E840082300318013E85000008AD00DD
:1001D0000130AE002E08B8073808A03E860087011F
:1001E0002D0881002E30AD000130AE002E08B8077A
:1001F0003808A03E860087012D08810036080F3997
:100200004A3E840082300318013E85000008AD009C
:100210000130AE002E08B8073808A03E86008701DE
:100220002D088100350E0F394A3E840082300318B4
:10023000013E85000008AD000130AE002E08B80771
:100240003808A03E860087012D08810035080F3947
:100250004A3E840082300318013E85000008AD004C
:100260000130AE002E08B8073808A03E860087018E
:100270002D0881005630AD000130AE002E08B807C1
:100280003808A03E860087012D088100491976298B
:100290000A30A1000030A2003408A4003308A300F3
:1002A00087311A27803120002208B4002108B300CA
:1002B0002030B3071C30B43D0630B436B30C890B84
:1002C0005D2901303402003003193302031C6C290C
:1002D000FF30B3000030B4003308AD00AE01AD35DF
:1002E000AE0DAD35AE0DAD35AE0D93292830A10064
:1002F0000030A2003408A4003308A30087311A2775
:10030000803120002208B4002108B3000830B43640
:10031000B30C890B87293308AD00AE010530AD352C
:10032000AE0D890B8F292D08AF002E08B0003008C4
:10033000A2002F08A1008431E02480312000210890
:10034000B5002208B6002308B7002030AD00013008
:10035000AE002E08B8073808A03E860087012D0899
:100360008100360E0F394A3E840082300318013E68
:1003700085000008AD000130AE002E08B80738082F
:10038000A03E860087012D08810036080F394A3EBD
:10039000840082300318013E85000008AD00013062
:1003A000AE002E08B8073808A03E860087012D0849
:1003B0008100350E0F394A3E840082300318013E19
:1003C00085000008AD000130AE002E08B8073808DF
:1003D000A03E860087012D08810035080F394A3E6E
:1003E000840082300318013E85000008AD00013012
:1003F000AE002E08B8073808A03E860087012D08F9
:1004000081007530AD000130AE002E08B807380805
:10041000A03E860087012D0881007330AD000130B9
:10042000AE002E08B8073808A03E860087012D08C8
:1004300081005D30AD000130AE002E08B8073808ED
:10044000A03E860087012D0881000A30AD000130F2
:10045000AE002E08B8073808A03E860087012D0898
:1004600081000D30AD000130AE002E08B80738080D
:10047000A03E860087012D0881000130AD002D08C7
:10048000B8073808A03E860087018101330887310C
:100490005127080030343134323433343434353475
:1004A00036343734383439344134423443344434C4
:1004B0004534463400345B3448343A3420344834CC
:1004C0002D3465346C347034203456342D34653416
:1004D0007234733469346F346E34203445342D34BF
:1004E000633468346F34203452342D3465347034BE
:1004F0006F3472347434203450342D346534723493
:10050000633465346E3474342034503457344D348D
:100510005D340A340D3400345B3456343A342034BC
:100520004B3441342D343034323437344334203476
:10053000313436344634313438343434373420347A
:10054000763432342E3431342E3430342034323454
:1005500030343134363430343434313432345D3440
:100560000A340D3400345B3450343A34203431349E
:10057000303430342034703465347234633465344C
:100580006E3474342034503457344D342034643451
:10059000653461346334743469347634613474346A
:1005A000653464345D340A340D3400345B345034C3
:1005B0003A342034313430343034203470346534BB
:1005C0007234633465346E347434203450345734A8
:1005D0004D34203461346334743469347634613496
:1005E0007434653464345D340A340D3400345B345F
:1005F00045343A3420344D346534733473346134C3
:100600006734653420346534633468346F3420349F
:1006100064346534613463347434693476346134F9
:100620007434653464345D340A340D3400345B341E
:1006300045343A3420344D34653473347334613482
:100640006734653420346534633468346F3420345F
:1006500061346334743469347634613474346534A9
:1006600064345D340A340D3400345B3452343A342B
:1006700020345234653470346F34723474346934D5
:100680006E346734203464346534613463347434D4
:100690006934763461347434653464345D340A34D6
:1006A0000D3400345B3452343A34203452346534DF
:1006B00070346F347234743469346E346734203477
:1006C0006134633474346934763461347434653439
:1006D00064345D340A340D3400345B343F343A34CE
:1006E00020344E346F347434203469346D347034B3
:1006F0006C3465346D3465346E347434653464340C
:100700005D340A340D3400345B343F343A342034E1
:100710004E346F34743420347234653463346F343F
:1007200067346E3469347A34653464345D340A3441
:100730000D3400342000491CC82BAB014A082B02A1
:100740000318C02B2B08C83E860087010A3001061B
:100750000319BA2B2B08C83E860087010D3001060D
:100760000319BA2B2B08C83E860087010108853182
:100770005025833101302000AA002A08AB079E2BA8
:100780000A308531502583310D3085315025833134
:100790005B30210048060319552C6A2C5B30200081
:1007A000A4008230A50087316B2783316A2C8C30FE
:1007B0002000A4008230A50087316B2783316A2C8A
:1007C000200049080139AA000130AA0649082A0672
:1007D000FE392A06C900491CF52B1730A4008330C6
:1007E000A50087316B2783316A2CF7302000A400E5
:1007F0008230A50087316B2783316A2C2000490C99
:10080000AA002A0C0139AA000130AA06AA0DAA0DD5
:1008100049082A06FB392A06C9008F31DF278331B0
:100820002000491D1B2CD630A4008230A500873142
:100830006B2783316A2CB3302000A4008230A500DE
:1008400087316B2783316A2C2000490C0139AA00BB
:100850000130AA06AA0D49082A06FD392A06C90050
:10086000C91C3A2C5230A4008330A50087316B2775
:1008700083316A2C35302000A4008330A5008731F5
:100880006B2783316A2C6D302000A4008330A500D3
:1008900087316B2783316A2C84302000A400833099
:1008A000A50087316B2783316A2C21004908423A21
:1008B0000319432C073A0319E02B0D3A0319CE2BE9
:1008C000183A0319FE2B023A0319242C043A03198F
:1008D000D72B4C2C8F31C52708008F31C22784318C
:1008E0002000CB01CB0ACC01CC0ACD01CD0AC1013D
:1008F000C201C301F401C401C50186316F268431F0
:100900008F31C82784318F31BC278431BB2C803193
:100910000320843101302000C40244080319BB2C99
:100920000000BB2C8731FD27843101302000C50237
:1009300045080319BB2C0000BB2C8F31D427843110
:100940000130F40274080319BB2C0000BB2C8F315A
:10095000CB27843101302000C10241080319BB2C90
:100960000000BB2C8F31CE27843101302000C20221
:100970004208031D00008F31BF2784312000440846
:10098000031D872C20004508031D922C7408031DAD
:100990009D2C20004108031DA72C20004208031DA8
:1009A000B22C200043080319BB2C8F31D12784318E
:1009B00001302000C30243080319BB2C0000BB2CEC
:1009C00000302000A7000030A8000030A900273028
:1009D0002202103003192102031C0B2D1030A1023A
:1009E0002730A23B0030A707003003180130A807CA
:1009F000013003180230A907E72CE830A1020330C8
:100A0000A23B0030A707103003181130A8070030B0
:100A100003180130A90703302202E830031921022C
:100A2000031C212DFD2C6430A1020030A23B0030BC
:100A3000A707013003180230A8070030031801305F
:100A4000A90700302202643003192102031C372D4C
:100A5000132D0A30A1020030A23B1030A70700304E
:100A600003180130A807003003180130A90700302F
:100A700022020A30031921020318292D2108A4009B
:100A80002208A500A6012408A7072508A83D2608D6
:100A9000A93D2708A1002808A2002908A3000800F2
:100AA0002000A30021001112751C662D01302000CA
:100AB000A1002108C807031D5F2D0130C8023F08AF
:100AC0008600400887002308810008007308200082
:100AD000C0007208BF0072088600730887002308F0
:100AE00081000130F2070030F33D7F30A100233058
:100AF000A20073082202031D7F2D72082102031831
:100B0000852D2330F3001030F20071087306031DA9
:100B10008B2D7008720603197514F510210011163B
:100B2000080023009D1CA02D1D121D160130FA0087
:100B30007A082000C707031D08000130C70208001B
:100B40001D1DB02D1908FA007A08FB000130FA00CB
:100B50007A082000C607031D08000130C6020800FD
:100B6000751DBA2D0130FA007A08F607031DBA2D5B
:100B70000130F6021908FA007A08FB007B0885317B
:100B8000D02585315D307B06031D08000130FA0059
:100B90007A082000C507031D08000130C5020800BF
:100BA000F900751DE32D0130F7007708F607031DE6
:100BB000DB2D0130F60220003B0886003C08870050
:100BC00079088100080020003E08BC003D08BB00F9
:100BD0003D0886003E088700790881000130BD0786
:100BE0000030BE3DEF30F7002330F8003E087802B9
:100BF000031DFC2D3D0877020318022E2330BE0092
:100C00008030BD003A083E06031D082E39083D0617
:100C100003197515F511080020008C018D01F530C0
:100C200021008C00FF308D0023008C0180308D006E
:100C3000803022009D0001309E00210091012000A3
:100C40009101C0308B008F31E42786318F31C52769
:100C5000863187318427863120004910C914491113
:100C60008F31DF27863121001A1B1A1C332E8C305E
:100C70002000A4008230A50087316B2708000030D7
:100C80002000AC000030AB000030AA000030A9000A
:100C9000211C522E2508A9072608AA3D2708AB3D8E
:100CA0002808AC3D0130A535A60DA70DA80D890B70
:100CB000532E0130A436A30CA20CA10C890B5A2E82
:100CC0002408230422042104031D482E2C08A40018
:100CD0002B08A3002A08A2002908A100080001305F
:100CE0002000CB02031D7E2ECB01CB0A0130A100D8
:100CF0002108C107031D7E2E0130C1020130CC0244
:100D0000031D8E2E0430A1002108CC000130A1006B
:100D10002108C207031D8E2E0130C2020130CD0210
:100D2000031D0800C830A1002108CD000130A1003A
:100D30002108C307031D08000130C3020800F51D88
:100D4000A32E003008002000390886003A088700EA
:100D50000108A1002108A3000130B9070030BA3D05
:100D6000EF30A1002330A2003A082202031DBA2E60
:100D7000390821020318C02E2330BA008030B90090
:100D80003E083A06031DC62E3D0839060319F5151F
:100D9000751123080800F51CCF2E003008007008DC
:100DA0008600710887000108F7007708F900013014
:100DB000F0070030F13D7F30F7002330F800710874
:100DC0007802031DE52E700877020318EB2E2330FE
:100DD000F1001030F00073087106031DF12E720847
:100DE00070060319F5147510790808008F31DF2794
:100DF00086312000C91C0800A5015830A400240831
:100E0000A600283025020318080026080319080048
:100E10002508A03E860087010108A4002408A6003A
:100E2000260885315025863101302000A400240891
:100E3000A507012F2000A501A601211C232F2308AF
:100E4000A5072408A63D0130A335A40D890B242F46
:100E50000130A236A10C890B292F21082204031D81
:100E60001D2F2608A2002508A100080022000C0C56
:100E70002000A100A10C210C0139A1000130A10624
:100E8000A10DA10DA10D22000C0820002106F739AB
:100E9000210622008C002000491D08008F31DB272D
:100EA00008002000A300491D572FD730582FD530F8
:100EB0002100950020002308031908002303FF3AAE
:100EC000FF3EA1002108A2002208950022008C14F8
:100ED0000B118B16080020002508A7002408A60087
:100EE000A40A0319A50A260884002708850000081B
:100EF000A8002808A90029080319080020002908CB
:100F00008531502587316B2F443023009B009C0195
:100F100048309F0024309E0090309D008F31F02794
:100F200087318731AC2787318731BC272100911663
:100F3000080086319F2687312000AC002C08AD00C8
:100F40002D088731CC2787315D3020002D06031D09
:100F5000992F83319A2308002330F1001030F000DC
:100F60002330F3001030F20023302000C0007F3027
:100F7000BF007510F514080023302000BA0080303F
:100F8000B9002330BE008030BD002330BC00EF30FC
:100F9000BB007511F51508002000A2002208A10071
:100FA0004A08C83E86008701210881000130A1005F
:100FB0002108CA0708006400800101310130FE02E7
:100FC0000030FF3B7F087E0403190034DC2F3030F3
:100FD0002000980078309600EC3097002100111422
:100FE000200018140800F51CF82F21001112080029
:100FF0008631CB2623009A00080087319927080004
:101F6C0022008C1008008F31B62708008731E72734
:101F7C0008008031022008008F31D727080020008C
:101F8C00CA01080086310C26080087313627080064
:101F9C008F31EA2708008631F62608008031792037
:101FAC0008007030210099000800210011179D14C1
:101FBC00080020000C1808004915080019302100F1
:101FCC009D00A0309E0008002000491908008F31A8
:101FDC00DB27080075122000C701C601F601C801F5
:101FEC00080021001C082000A20021001B08200072
:041FFC00A100080038
:020000040001F9
:04000E00E4CFFFDB61
:00000001FF
