:1000000080314C28080008007E14803120007F08D1
:10001000FD00911E14282100911E14282000911229
:1000200085317F25803147282000111E202821009E
:10003000111E2028200011128731DD27803147282A
:100040002000911D252891114728111F33281113D5
:10005000210011130130FC007C08F407031D472820
:100060000130F40247280B1D3A280B118F31CA27A3
:1000700080314728111C442811108F31CD27803141
:1000800086315C26803147280000000000007D0892
:100090002000FF007E10090080314E2810308400BF
:1000A00023308500E030FE000030FF008731C52797
:1000B0008031F001F101F201F301F401F501F601E3
:1000C00039308400003085001230FE000030FF001F
:1000D0008731C5278031A030840000308500503042
:1000E000FE000030FF008731C5277E1020008431DC
:1000F0005B2C8731E727803120002208B4002108DB
:10010000B3005B30AD00B8010030A03E860087012F
:100110002D0881005230AD000130AE002E08B80726
:100120003808A03E860087012D0881003A30AD00D6
:100130000130AE002E08B8073808A03E86008701BF
:100140002D0881003308A1003408A200A301A401F6
:100150000030A8000030A7000430A600E330A5005E
:1001600086312C26803120002408B2002308B100FB
:100170002208B0002108AF003008AD002D08AF0004
:100180003108AD002D08B0003008A2002F08A100F2
:100190008431CE24803120002108B5002208B60029
:1001A0002308B7002030AD000130AE002E08B8079C
:1001B0003808A03E860087012D088100360E0F39D1
:1001C0004A3E840082300318013E85000008AD00DD
:1001D0000130AE002E08B8073808A03E860087011F
:1001E0002D0881002E30AD000130AE002E08B8077A
:1001F0003808A03E860087012D08810036080F3997
:100200004A3E840082300318013E85000008AD009C
:100210000130AE002E08B8073808A03E86008701DE
:100220002D088100350E0F394A3E840082300318B4
:10023000013E85000008AD000130AE002E08B80771
:100240003808A03E860087012D08810035080F3947
:100250004A3E840082300318013E85000008AD004C
:100260000130AE002E08B8073808A03E860087018E
:100270002D0881005630AD000130AE002E08B807C1
:100280003808A03E860087012D088100491976298B
:100290000A30A1000030A2003408A4003308A300F3
:1002A00087310727803120002208B4002108B300DD
:1002B0002030B3071C30B43D0630B436B30C890B84
:1002C0005D2901303402003003193302031C6C290C
:1002D000FF30B3000030B4003308AD00AE01AD35DF
:1002E000AE0DAD35AE0DAD35AE0D93292830A10064
:1002F0000030A2003408A4003308A3008731072788
:10030000803120002208B4002108B3000830B43640
:10031000B30C890B87293308AD00AE010530AD352C
:10032000AE0D890B8F292D08AF002E08B0003008C4
:10033000A2002F08A1008431CE24803120002108A2
:10034000B5002208B6002308B7002030AD00013008
:10035000AE002E08B8073808A03E860087012D0899
:100360008100360E0F394A3E840082300318013E68
:1003700085000008AD000130AE002E08B80738082F
:10038000A03E860087012D08810036080F394A3EBD
:10039000840082300318013E85000008AD00013062
:1003A000AE002E08B8073808A03E860087012D0849
:1003B0008100350E0F394A3E840082300318013E19
:1003C00085000008AD000130AE002E08B8073808DF
:1003D000A03E860087012D08810035080F394A3E6E
:1003E000840082300318013E85000008AD00013012
:1003F000AE002E08B8073808A03E860087012D08F9
:1004000081007530AD000130AE002E08B807380805
:10041000A03E860087012D0881007330AD000130B9
:10042000AE002E08B8073808A03E860087012D08C8
:1004300081005D30AD000130AE002E08B8073808ED
:10044000A03E860087012D0881000A30AD000130F2
:10045000AE002E08B8073808A03E860087012D0898
:1004600081000D30AD000130AE002E08B80738080D
:10047000A03E860087012D0881000130AD002D08C7
:10048000B8073808A03E860087018101330887310C
:1004900023270800303431343234333434343534A3
:1004A00036343734383439344134423443344434C4
:1004B0004534463400345B3448343A3420344834CC
:1004C0002D3465346C347034203456342D34653416
:1004D0007234733469346F346E34203445342D34BF
:1004E000633468346F34203452342D3465347034BE
:1004F0006F3472347434203450342D346534723493
:10050000633465346E3474342034503457344D348D
:100510005D340A340D3400345B3456343A342034BC
:100520004B3441342D343034323437344334203476
:10053000313436344634313438343434373420347A
:10054000763432342E3432342E3430342034323453
:1005500030343134363430343434323435345D343C
:100560000A340D3400345B3450343A34203431349E
:10057000303430342034703465347234633465344C
:100580006E3474342034503457344D342034643451
:10059000653461346334743469347634613474346A
:1005A000653464345D340A340D3400345B345034C3
:1005B0003A342034313430343034203470346534BB
:1005C0007234633465346E347434203450345734A8
:1005D0004D34203461346334743469347634613496
:1005E0007434653464345D340A340D3400345B345F
:1005F00045343A3420344D346534733473346134C3
:100600006734653420346534633468346F3420349F
:1006100064346534613463347434693476346134F9
:100620007434653464345D340A340D3400345B341E
:1006300045343A3420344D34653473347334613482
:100640006734653420346534633468346F3420345F
:1006500061346334743469347634613474346534A9
:1006600064345D340A340D3400345B3452343A342B
:1006700020345234653470346F34723474346934D5
:100680006E346734203464346534613463347434D4
:100690006934763461347434653464345D340A34D6
:1006A0000D3400345B3452343A34203452346534DF
:1006B00070346F347234743469346E346734203477
:1006C0006134633474346934763461347434653439
:1006D00064345D340A340D3400345B343F343A34CE
:1006E00020344E346F347434203469346D347034B3
:1006F0006C3465346D3465346E347434653464340C
:100700005D340A340D3400345B343F343A342034E1
:100710004E346F34743420347234653463346F343F
:1007200067346E3469347A34653464345D340A3441
:100730000D3400342000491CC82BAB014A082B02A1
:100740000318C02B2B08C83E860087010A3001061B
:100750000319BA2B2B08C83E860087010D3001060D
:100760000319BA2B2B08C83E860087010108853182
:100770003E25833101302000AA002A08AB079E2BBA
:100780000A3085313E2583310D3085313E25833158
:100790005B30210048060319432C582C5B302000A5
:1007A000A4008230A50087313E278331582C8C303D
:1007B0002000A4008230A50087313E278331582CC9
:1007C000200049080139AA000130AA0649082A0672
:1007D000FE392A06C900491CF52B1730A4008330C6
:1007E000A50087313E278331582CF7302000A40024
:1007F0008230A50087313E278331582C2000491DC7
:10080000092CD630A4008230A50087313E278331E1
:10081000582CB3302000A4008230A50087313E2739
:100820008331582C2000490C0139AA000130AA0656
:10083000AA0D49082A06FD392A06C900C91C282C18
:100840005230A4008330A50087313E278331582CD5
:1008500035302000A4008330A50087313E27833146
:10086000582C6D302000A4008330A50087313E272E
:100870008331582C84302000A4008330A5008731B8
:100880003E278331582C21004908423A0319312C64
:10089000073A0319E02B0D3A0319CE2B183A031926
:1008A000FE2B023A0319122C043A0319D72B3A2CC7
:1008B0008F31D62708008F31D32784312000CB0118
:1008C000CB0ACC01CC0ACD01CD0AC101C201C301C2
:1008D000F401C401C50186315C2684318F31D927EA
:1008E00084318F31CD278431A92C8031032084318C
:1008F00001302000C40244080319A92C0000A92CCF
:100900008731FD27843101302000C50245080319D5
:10091000A92C0000A92C8F31E52784310130F40285
:1009200074080319A92C0000A92C8F31DC2784310D
:1009300001302000C10241080319A92C0000A92C94
:100940008F31DF27843101302000C2024208031DAD
:1009500000008F31D027843120004408031D752CFE
:1009600020004508031D802C7408031D8B2C2000DB
:100970004108031D952C20004208031DA02C2000D7
:1009800043080319A92C8F31E2278431013020005C
:10099000C30243080319A92C0000A92C0030200031
:1009A000A7000030A8000030A90027302202103034
:1009B00003192102031CF92C1030A1022730A23B9D
:1009C0000030A707003003180130A80701300318D2
:1009D0000230A907D52CE830A1020330A23B003039
:1009E000A707103003181130A80700300318013092
:1009F000A90703302202E83003192102031C0F2D3E
:100A0000EB2C6430A1020030A23B0030A70701307C
:100A100003180230A807003003180130A90700307E
:100A20002202643003192102031C252D012D0A30F6
:100A3000A1020030A23B1030A7070030031801309C
:100A4000A807003003180130A907003022020A303D
:100A5000031921020318172D2108A4002208A5005C
:100A6000A6012408A7072508A83D2608A93D2708B0
:100A7000A1002808A2002908A30008002000A30064
:100A800021001112751C542D01302000A1002108F5
:100A9000C807031D4D2D0130C8023F0886004008DD
:100AA000870023088100080073082000C000720836
:100AB000BF00720886007308870023088100013098
:100AC000F2070030F33D7F30A1002330A20073080D
:100AD0002202031D6D2D720821020318732D23308D
:100AE000F3001030F20071087306031D792D7008B1
:100AF000720603197514F510210011160800230061
:100B00009D1C8E2D1D121D160130FA007A08200042
:100B1000C707031D08000130C70208001D1D9E2DD8
:100B20001908FA007A08FB000130FA007A08200060
:100B3000C607031D08000130C6020800751DA82D58
:100B40000130FA007A08F607031DA82D0130F602DD
:100B50001908FA007A08FB007B088531BE2585312B
:100B60005D307B06031D08000130FA007A08200082
:100B7000C507031D08000130C5020800F900751DF6
:100B8000D12D0130F7007708F607031DC92D01307C
:100B9000F60220003B0886003C08870079088100A7
:100BA000080020003E08BC003D08BB003D08860050
:100BB0003E088700790881000130BD070030BE3D46
:100BC000EF30F7002330F8003E087802031DEA2DCD
:100BD0003D0877020318F02D2330BE008030BD00A1
:100BE0003A083E06031DF62D39083D060319751512
:100BF000F511080020008C018D01F53021008C00DA
:100C0000FF308D0023008C0180308D008030220069
:100C10009D0001309E002100910120009101C03013
:100C20008B008F31F42785318F31D627853187317D
:100C30006E27853120004910C91487315727853127
:100C400021001A1B1A1C202E8C302000A400823098
:100C5000A50087313E27080000302000AC0000309E
:100C6000AB000030AA000030A900211C3F2E25084F
:100C7000A9072608AA3D2708AB3D2808AC3D01304E
:100C8000A535A60DA70DA80D890B402E0130A43661
:100C9000A30CA20CA10C890B472E240823042204C8
:100CA0002104031D352E2C08A4002B08A3002A08BC
:100CB000A2002908A100080001302000CB02031D7A
:100CC0006B2ECB01CB0A0130A1002108C107031D07
:100CD0006B2E0130C1020130CC02031D7B2E04308B
:100CE000A1002108CC000130A1002108C207031D8A
:100CF0007B2E0130C2020130CD02031D0800C83036
:100D0000A1002108CD000130A1002108C307031D67
:100D100008000130C3020800F51D902E00300800C5
:100D20002000390886003A0887000108A100210840
:100D3000A3000130B9070030BA3DEF30A1002330E5
:100D4000A2003A082202031DA72E39082102031827
:100D5000AD2E2330BA008030B9003E083A06031D9C
:100D6000B32E3D0839060319F5157511230808003F
:100D7000F51CBC2E00300800700886007108870042
:100D80000108F7007708F9000130F0070030F13D65
:100D90007F30F7002330F80071087802031DD22E4F
:100DA000700877020318D82E2330F1001030F000BD
:100DB00073087106031DDE2E720870060319F51400
:100DC0007510790808008731572786312000C91C23
:100DD0000800AB015830AA002A08AC0028302B02CA
:100DE000031808002C08031908002B08A03E8600F1
:100DF00087010108AA002A08AC002C0885313E258D
:100E0000863101302000AA002A08AB07EE2E200010
:100E1000A501A601211C102F2308A5072408A63D23
:100E20000130A335A40D890B112F0130A236A10C7E
:100E3000890B162F21082204031D0A2F2608A20061
:100E40002508A10008002000A300491D292FD73044
:100E50002A2FD5302100950020002308031908000F
:100E60002303FF3AFF3EA1002108A20022089500BB
:100E700022008C148C150B118B16080020002508FD
:100E8000A7002408A600A40A0319A50A26088400BE
:100E9000270885000008A8002808A90029080319C8
:100EA00008002000290885313E2587313E2F20008B
:100EB0000C18642F491908004915D630A400823057
:100EC000A50087313E270800491D08004911B330AD
:100ED000A4008230A50087313E270800443023005B
:100EE0009B009C0148309F0024309E0090309D0064
:100EF0008731F02787318731962787318731A627B9
:100F000021009116080086318C2687312000AC0024
:100F10002C08AD002D088731B62787315D302000C1
:100F20002D06031D832F83319A2308002330F100FF
:100F30001030F0002330F3001030F2002330200096
:100F4000C0007F30BF007510F5140800233020006A
:100F5000BA008030B9002330BE008030BD0023309D
:100F6000BC00EF30BB007511F51508002000A20091
:100F70002208A1004A08C83E860087012108810096
:100F80000130A1002108CA07080064008001013176
:100F90000130FE020030FF3B7F087E04031900345D
:100FA000C62F30302000980078309600EC30970043
:100FB00021001114200018140800F51CE22F210054
:100FC000111208008631B82623009A00080021007B
:100FD0001C082000A20021001B082000A10008001E
:100FE00075122000C701C601F601C80108002000E3
:100FF000491908008F31F02708008731832708003E
:101F94008F31E82708008731D127080080310220DB
:101FA40008008F31EC2708002000CA0108008531A1
:101FB400FA2508008F31FA2708008731F72708002F
:101FC4008631E326080080317920080022008C1035
:101FD4008C110800703021009900080021001117AD
:101FE4009D140800193021009D00A0309E000800B7
:0C1FF4002000491D08008F31F027080074
:020000040001F9
:04000E00E4CFFFDB61
:00000001FF
