:06000000000080314228DF
:100008007E1480312000911E12282100911E122892
:10001800200091128431CA24803140282000111E0A
:100028001E282100111E1E282000111285312225AC
:10003800803140282000911D232891114028111F4C
:100048002C28111321001113F60F4028F60340281D
:100058000B1D33280B1185315D2580314028111C7B
:100068003D2811108031DC2080318031C62080315C
:1000780040280000000000007E100900803144285C
:100088001030840023308500E030FE00FF01853108
:10009800512580313630F601F701F801F901840065
:1000A800003085001530FE00FF0185315125803173
:1000B800A0308400003085005030FE000030FF0181
:1000C8008531512580317E1020006A28DE2080315C
:1000D8002000CB01CB0ACC01CC0ACD01CD0AC2014C
:1000E800C301C401F601C501C601C6208031DF2065
:1000F8008031DC208031A828E4208031C503450800
:100108000319A8280000A828E5208031C60346085E
:100118000319A8280000A828E3208031F6037608F0
:100128000319A8280000A828E02080312000C20375
:1001380042080319A8280000A828E12080312000DF
:10014800C3034308031D0000DD208031200045085B
:10015800031D80284608031D88287608031D90285B
:100168004208031D98284308031DA12844080319C1
:10017800A828E22080312000C40344080319A828D5
:100188000000A828CB0BCD28CB01CB0AC20FCD2865
:10019800C203CC0BD4280A30CC00C30FD428C30325
:1001A800CD0B08006430CD00C40F0800C40308005C
:1001B800E628F128F228F6285A2962296629442ACD
:1001C80008007C2B30309800E0309600B130970062
:1001D80021001114200018140800080070302100B4
:1001E800990008008C018D01FD3021008C00F4304D
:1001F8008D00013023008C008D01803022009D008D
:1002080001309E002100910120009101C0308B0037
:100218001A21803120218031232180317910F9146D
:100228001A1B1A1C1429CF238031F629013021000A
:100238009D00A0309E0008002000CA01080044303C
:1002480023009B009C0148309F0024309E00903082
:100258009D00352180313C2180314B2121009116B0
:10026800080077122000C801C701F801C901080079
:100278002330BD001030BC002330C1001030C00056
:100288002330BF007F30BE007710F71408002330FA
:10029800B7008030B6002330BB008030BA0023306E
:1002A800B900EF30B8007711F715080001302200C7
:1002B8008D065E29210011179D14080002302200C6
:1002C8008D060800083022008D06F91C0800200061
:1002D800A201283022020318080021080319080087
:1002E8002208A03E860087010108A100092280316A
:1002F8002000A20A6D29791CA429A6014A08260211
:1003080003189E292608C83E86000A308701010680
:1003180003199B292608C83E86000D3001060319DB
:100328009B292608C83E8600010809228031200042
:10033800A60A82290A30092280310D30092280312B
:100348005B30210048060319E729F529CF238031BE
:10035800F6218031F5290130F906791CBB2947308F
:100368002000A1008430A200F6218031F529273031
:100378002000A1008430A200F6218031F529023046
:10038800F906F91CCF2982302000A1008430A20090
:10039800F6218031F52965302000A1008430A200C3
:1003A800F6218031F5299D302000A1008430A2007B
:1003B800F6218031F529B4302000A1008430A20054
:1003C800F6218031F5294908423A0319D729073A15
:1003D8000319AF29173A0319C329043A0319AA299B
:1003E800DF29202920002208A4002108A300A10A4F
:1003F8000319A20A8400240885000008A50025081E
:100408000319080009228031F6292000A0002100E4
:100418001112771C1A2A2000C90F132AC9033E0893
:1004280086003F0887002008810008002000410856
:10043800BF004008BE004008860041088700200829
:100448008100C00A0319C10A7F30F4002330F50087
:1004580041087502031D322A400874020318382A1D
:100468002330C1001030C0003D084106031D3E2A5C
:100478003C08400603197714F710210011160800EC
:100488002F23803175082000B4007408B3000030B1
:10049800B501A03E86005B308701C323803152300E
:1004A800C32380313A30C32380312030C3238031C5
:1004B800340EAC2380313408AC238031330EAC23A6
:1004C800803133080F39BA2380313308A00034084B
:1004D800A1000430A201A301A701A601A500E330F1
:1004E800A400352380312308B2002208B100210876
:1004F800B0002008AF003008AF003108B000A100FC
:100508002F08A000DA2280312008AC002108AD00B5
:100518002208AE00B50AC9238031C32380312D0ECD
:10052800AC2380312E30C32380312D08AC23803199
:100538002C0EAC2380312C080F39BA2380310A30B5
:10054800A000A1013408A3003308A2005A23803177
:100558002108B4002008B3002030B3071C30B43D94
:100568000630B436B30C890BB52A0130340200309A
:1005780003193302031CC32AFF30B300B401B50AC0
:10058800C9238031C3238031330EAC238031330833
:10059800AC2380315D30C32380310A30C3238031DE
:1005A8000D30C3238031810133086F2BA601A701C9
:1005B800A80127302102103003192002031CF42A55
:1005C8001030A0022730A13B0130A807DD2AE8300F
:1005D800A0020330A13B1030A70701300318A80779
:1005E80003302102E83003192002031C032BEB2AF5
:1005F8006430A0020030A13BA70A0319A80A003002
:100608002102643003192002031C162BFC2A0A302D
:10061800A0020030A13B1030A60701300318A7073D
:100628000318A807003021020A3003192002031812
:100638000B2B2008A3002108A400A5012308A60766
:100648002408A73D2508A83D2608A0002708A100E2
:100658002808A200080021001C08F5001B08F40067
:100668000800A801A901AA01AB01201C432B2408FA
:10067800A8072508A93D2608AA3D2708AB3DA435AB
:10068800A50DA60DA70DA336A20CA10CA00C23083E
:10069800220421042004031D392B2B08A3002A0857
:1006A800A2002908A1002808A0000800F401F5010B
:1006B800201C622B2208F4072308F53DA235A30D60
:1006C800A136A00C20082104031D5C2B7508A1008D
:1006D8007408A0000800F400D530210095007409C2
:1006E800F5002000950022008C140B118B160800D1
:1006F80086238031A700D52380315D302706031D6E
:100708007C2B7F29F71900343608860037088700C4
:100718000108A000B60A0319B70AEF30F400233025
:10072800F50037087502031D9B2B36087402031861
:10073800A12B2330B7008030B6003B083706031DD5
:10074800A72B3A0836060319F71577112008080071
:100758000F39DE3E840083300318013E850000080F
:100768008100B50A3508A03E86000800DE3E8400F8
:1007780083300318013E85000008810008008100CD
:10078800B50A3508A03E860008003508A03E860058
:10079800203087010800EF302000A1008330A2003C
:1007A8000800F4004A08C83E8600870174088100E2
:1007B800CA0A0800303431343234333434343534EE
:1007C8003634373438343934413442344334443499
:1007D8004534463400345B3456343A3420344E348D
:1007E80065346D3465347334693473342034523469
:1007F800653470346C346134633465346D34653415
:100808006E34743420343134363446343134383428
:10081800343437342034763430342E3432342E3471
:1008280030342034303432343734433420343234A2
:1008380030343134353431343034323439345D3451
:100848000A340D3400345B3445343A3420344D34A2
:1008580065347334733461346734653420346534F3
:10086800633468346F3420346434653461346334F9
:1008780074346934763461347434653464345D3482
:100888000A340D3400345B3445343A3420344D3462
:1008980065347334733461346734653420346534B3
:1008A800633468346F3420346134633474346934A5
:1008B800763461347434653464345D340A340D3408
:1008C80000345B3452343A34203452346534703452
:1008D8006F347234743469346E3467342034643459
:1008E800653461346334743469347634613474340F
:1008F800653464345D340A340D3400345B34523466
:100908003A3420345234653470346F347234743469
:1009180069346E3467342034613463347434693430
:10092800763461347434653464345D340A340D3497
:1009380000345B343F343A3420344E346F347434EA
:10094800203469346D3470346C3465346D346534F6
:100958006E347434653464345D340A340D340034D0
:100968005B343F343A3420344E346F34743420349A
:100978007234653463346F3467346E3469347A346E
:10098800653464345D340A340D34003423009D1C0E
:10099800D42C1D121D162000C80F0800C80308001B
:1009A8001D1DDC2C19082000C70F0800C70308000C
:1009B800771DE12CF80FE12CF8031908F300EC245B
:1009C80084315D3073060319C60F0800C60308009A
:1009D800F200771DFA2CF80FF22CF80320003808E3
:1009E80086003908870072088100080020003B084B
:1009F800B9003A08B8003A0886003B088700720830
:100A08008100BA0A0319BB0AEF30F0002330F10065
:100A18003B087102031D122D3A0870020318182DA5
:100A28002330BB008030BA0037083B06031D1E2D5B
:100A380036083A0603197715F7110800F71C272D11
:100A48002100111208002B2523009A000800F7182E
:100A580000343C0886003D0887000108F200BC0A03
:100A68000319BD0A7F30F0002330F1003D08710200
:100A7800031D402D3C0870020318462D2330BD008D
:100A88001030BC0041083D06031D4C2D40083C06B3
:100A98000319F71477107208080064000130800108
:100AA8000131FE020030FF3B7F087E040319003449
:0A0AB800522D5E2D22008C10080064
:020000040001F9
:04000E00E4CFFFDB61
:00000001FF
