:06000000000080314C28D5
:100008007E14803120007F08FD00911E14282100F5
:10001800911E1428200091128431CD248031472864
:100028002000111E20282100111E20282000111256
:1000380087311927803147282000911D25289111E3
:100048004728111F33281113210011130130FC0018
:100058007C08F407031D47280130F40247280B1DCC
:100068003A280B118731682780314728111C44280A
:1000780011108731652780318531782580314728EF
:100088000000000000007D082000FF007E1009002D
:1000980080314E281030840023308500E030FE0087
:1000A8000030FF008631F6268031F001F101F201BF
:1000B800F301F401F501F6013930840000308500C0
:1000C8001230FE000030FF008631F6268031A03065
:1000D8008400003085005030FE000030FF0086317B
:1000E800F6267E1020008331A92B87312327803103
:1000F80020002208B7002108B6005B30AD00B80127
:100108000030A03E860087012D0881005230AD00E6
:100118000130AE002E08B8073808A03E86008701D7
:100128002D0881003A30AD000130AE002E08B80726
:100138003808A03E860087012D0881002030AD00D8
:100148000130AE002E08B8073808A03E86008701A7
:100158002D088100370E0F391F3E840082300318A6
:10016800013E85000008AD000130AE002E08B8073A
:100178003808A03E860087012D08810037080F390E
:100188001F3E840082300318013E85000008AD0040
:100198000130AE002E08B8073808A03E8600870157
:1001A8002D088100360E0F391F3E84008230031857
:1001B800013E85000008AD000130AE002E08B807EA
:1001C8003808A03E860087012D08810036080F39BF
:1001D8001F3E840082300318013E85000008AD00F0
:1001E8000130AE002E08B8073808A03E8600870107
:1001F8002D0881003608A1003708A200A301A40138
:100208000030A8000030A7000430A600E330A500A5
:1002180085314825803120002408B5002308B40022
:100228002208B3002108B2003308AD002D08B2003F
:100238003408AD002D08B3003308A2003208A1002D
:1002480084311C24803120002108AF002208B0002E
:100258002308B1002030AD000130AE002E08B807E9
:100268003808A03E860087012D088100300E0F391E
:100278001F3E840082300318013E85000008AD004F
:100288000130AE002E08B8073808A03E8600870166
:100298002D0881002E30AD000130AE002E08B807C1
:1002A8003808A03E860087012D08810030080F39E4
:1002B8001F3E840082300318013E85000008AD000F
:1002C8000130AE002E08B8073808A03E8600870126
:1002D8002D0881002F0E0F391F3E8400823003182D
:1002E800013E85000008AD000130AE002E08B807B9
:1002F8003808A03E860087012D0881002F080F3995
:100308001F3E840082300318013E85000008AD00BE
:100318000130AE002E08B8073808A03E86008701D5
:100328002D0881000A30A1000030A2003708A4007F
:100338003608A30086315726803120002208B700EE
:100348002108B6002030B6071C30B73D0630B73656
:10035800B60C890BAB29013037020030031936027D
:10036800031CBA29FF30B6000030B7002030AD00BA
:100378000130AE002E08B8073808A03E8600870175
:100388002D088100360E0F391F3E84008230031875
:10039800013E85000008AD000130AE002E08B80708
:1003A8003808A03E860087012D08810036080F39DD
:1003B8001F3E840082300318013E85000008AD000E
:1003C8000130AE002E08B8073808A03E8600870125
:1003D8002D0881005D30AD000130AE002E08B80751
:1003E8003808A03E860087012D0881000A30AD003C
:1003F8000130AE002E08B8073808A03E86008701F5
:100408002D0881000D30AD000130AE002E08B80770
:100418003808A03E860087012D0881000130AD0014
:100428002D08B8073808A03E8600870181013608E4
:100438008631B4260800303431343234333434341D
:10044800353436343734383439344134423443342B
:1004580044344534463400345B3456343A3420341A
:100468004E3465346D3465347334693473342034F0
:100478005234653470346C346134633465346D34AB
:1004880065346E347434203431343634463431347F
:100498003834343437342034763430342E343234EB
:1004A8002E34313420343034323437344334203429
:1004B8003234303431343634303434343034313406
:1004C8005D340A340D3400345B3445343A34203416
:1004D8004D3465347334733461346734653420348F
:1004E8006534633468346F3420346434653461347B
:1004F8006334743469347634613474346534643400
:100508005D340A340D3400345B3445343A342034D5
:100518004D3465347334733461346734653420344E
:100528006534633468346F3420346134633474342C
:100538006934763461347434653464345D340A342F
:100548000D3400345B3452343A3420345234653438
:1005580070346F347234743469346E3467342034D0
:1005680064346534613463347434693476346134A2
:100578007434653464345D340A340D3400345B34C7
:1005880052343A3420345234653470346F3472340F
:10059800743469346E3467342034613463347434A9
:1005A8006934763461347434653464345D340A34BF
:1005B8000D3400345B343F343A3420344E346F34D5
:1005C8007434203469346D3470346C3465346D346B
:1005D80065346E347434653464345D340A340D34EF
:1005E80000345B343F343A3420344E346F3474343E
:1005F80020347234653463346F3467346E3469344C
:100608007A34653464345D340A340D34003420009F
:10061800491C392BAB014A082B020318312B2B0834
:10062800C83E860087010A30010603192B2B2B08C8
:10063800C83E860087010D30010603192B2B2B08B5
:10064800C83E86008701010884318C24833101303B
:100658002000AA002A08AB070F2B0A3084318C240B
:1006680083310D3084318C2483315B30210048067E
:100678000319972BA62B30302000A4008230A50048
:10068800863173268331A62B200049080139AA0038
:100698000130AA0649082A06FE392A06C900491C5B
:1006A8005D2B8830A4008230A50086317326833103
:1006B800A62B68302000A4008230A500863173265E
:1006C8008331A62B2000490C0139AA000130AA0663
:1006D800AA0D49082A06FD392A06C900C91C7C2B1F
:1006E800C330A4008230A500863173268331A62B3F
:1006F800A6302000A4008230A500863173268331FD
:10070800A62BDE302000A4008230A5008631732697
:100718008331A62BF5302000A4008230A500863155
:1007280073268331A62B21004908423A0319852BE9
:10073800073A0319482B173A0319662B043A031989
:100748003F2B8E2B87315C27080087315F27833149
:100758002000CB01CB0ACC01CC0ACD01CD0AC101C6
:10076800C201C301F401C401C50185317825833173
:10077800873159278331873165278331F72B8731B3
:100788006E27833101302000C40244080319F72B77
:100798000000F72B87314A27833101302000C5023A
:1007A80045080319F72B0000F72B87314D278331B4
:1007B8000130F40274080319F72B0000F72B873176
:1007C8005627833101302000C10241080319F72B55
:1007D8000000F72B87315327833101302000C202F4
:1007E8004208031D00008731622783312000440836
:1007F800031DC32B20004508031DCE2B7408031DC1
:10080800D92B20004108031DE32B20004208031DBB
:10081800EE2B200043080319F72B8731502783312B
:1008280001302000C30243080319F72B0000F72BFF
:1008380000302000A7000030A8000030A9002730B1
:100848002202103003192102031C472C1030A10288
:100858002730A23B0030A707003003180130A80753
:10086800013003180230A907232CE830A102033015
:10087800A23B0030A707103003181130A80700303A
:1008880003180130A90703302202E83003192102B6
:10089800031C5D2C392C6430A1020030A23B0030CF
:1008A800A707013003180230A807003003180130E9
:1008B800A90700302202643003192102031C732C9B
:1008C8004F2C0A30A1020030A23B1030A70700309D
:1008D80003180130A807003003180130A9070030B9
:1008E80022020A30031921020318652C2108A400EA
:1008F8002208A500A6012408A7072508A83D260860
:10090800A93D2708A1002808A2002908A30008007B
:100918002000A30021001112751CA22C0130200018
:10092800A1002108C807031D9B2C0130C8023F08FD
:10093800860040088700230881000800730820000B
:10094800C0007208BF007208860073088700230879
:1009580081000130F2070030F33D7F30A1002330E1
:10096800A20073082202031DBB2C7208210203187F
:10097800C12C2330F3001030F20071087306031DF8
:10098800C72C7008720603197514F510210011168A
:10099800080023009D1CDC2C1D121D160130FA00D6
:1009A8007A082000C707031D08000130C7020800A5
:1009B8001D1DEC2C1908FA007A08FB000130FA001A
:1009C8007A082000C607031D08000130C602080087
:1009D800751DF62C0130FA007A08F607031DF62C6F
:1009E8000130F6021908FA007A08FB007B08853105
:1009F8000C2584315D307B06031D08000130FA00A8
:100A08007A082000C507031D08000130C502080048
:100A1800F900751D1F2D0130F7007708F607031D33
:100A2800172D0130F60220003B0886003C0887009D
:100A380079088100080020003E08BC003D08BB0082
:100A48003D0886003E088700790881000130BD070F
:100A58000030BE3DEF30F7002330F8003E08780242
:100A6800031D382D3D08770203183E2D2330BE00A4
:100A78008030BD003A083E06031D442D39083D0666
:100A880003197515F511080000302000AC0000307E
:100A9800AB000030AA000030A900211C5B2D2508FE
:100AA800A9072608AA3D2708AB3D2808AC3D013018
:100AB800A535A60DA70DA80D890B5C2D0130A43610
:100AC800A30CA20CA10C890B632D24082304220477
:100AD8002104031D512D2C08A4002B08A3002A086B
:100AE800A2002908A100080001302000CB02031D44
:100AF800872DCB01CB0A0130A1002108C107031DB6
:100B0800872D0130C1020130CC02031D972D0A3018
:100B1800A1002108CC000130A1002108C207031D53
:100B2800972D0130C2020130CD02031D0800643048
:100B3800A1002108CD000130A1002108C307031D31
:100B480008000130C302080020008C018D01FD302F
:100B580021008C00F4308D00013023008C008D01C1
:100B6800803022009D0001309E002100910120006C
:100B78009101C0308B0087313C27853187315C2754
:100B8800853186318C26853120004910C914210011
:100B98001A1B1A1CCB2D30302000A4008230A5006F
:100BA800863173260800F51DDB2D00300800200073
:100BB800390886003A0887000108A1002108A30027
:100BC8000130B9070030BA3DEF30A1002330A20050
:100BD8003A082202031DF22D390821020318F82DC4
:100BE8002330BA008030B9003E083A06031DFE2DB6
:100BF8003D0839060319F515751123080800F51C79
:100C0800072E003008007008860071088700010868
:100C1800F7007708F9000130F0070030F13D7F3028
:100C2800F7002330F80071087802031D1D2E7008A4
:100C380077020318232E2330F1001030F0007308D8
:100C48007106031D292E720870060319F514751014
:100C58007908080022008D19342E22008D15362EB1
:100C680022008D112000C91C0800A5015830A400DD
:100C78002408A600283025020318080026080319AE
:100C880008002508A03E860087010108A400240862
:100C9800A600260884318C24863101302000A40067
:100CA8002408A5073E2E2000A501A601211C602EC0
:100CB8002308A5072408A63D0130A335A40D890BF8
:100CC800612E0130A236A10C890B662E2108220460
:100CD800031D5A2E2608A2002508A100080020009E
:100CE8002508A7002408A600A40A0319A50A2608AF
:100CF8008400270885000008A8002808A9002908FA
:100D0800031908002000290884318C248631732EA9
:100D1800443023009B009C0148309F0024309E00F3
:100D280090309D008731352786318631C726863138
:100D38008631D7262100911608008531D7258631BE
:100D48002000AC002C08AD002D088631E72686313E
:100D58005D3020002D06031DA12E83310B230800D2
:100D68002000A200D5302100950020002203FF3A80
:100D7800FF3EA1002108A3002308950022008C143F
:100D88000B118B1608002330F1001030F0002330CF
:100D9800F3001030F20023302000C0007F30BF0085
:100DA8007510F514080023302000BA008030B9000F
:100DB8002330BE008030BD002330BC00EF30BB00C4
:100DC8007511F51508002000A2002208A1004A08A4
:100DD800C83E86008701210881000130A100210852
:100DE800CA0708006400800101310130FE020030AA
:100DF800FF3B7F087E0403190034F72E30302000B3
:100E08009800E0309600B1309700210011142000BE
:100E18001814080022000D18142F22000D14162F84
:100E280022000D10873142270800F51C1E2F2100D3
:100E3800111208008631032623009A0008002100B9
:100E48001C082000A20021001B082000A1000800A7
:100E580022008D18322F22008D14080022008D10D8
:100E6800080075122000C701C601F601C801080074
:100E7800013021009D00A0309E00080021001117BC
:100E88009D14080070302100990008008631A126C1
:100E9800080080317920080086312E260800873125
:100EA8002C27080087310E2708008531A82508005F
:100EB8002000CA01080087314627080087316F27BC
:100EC800080087310227080087316B2708002200B5
:080ED8008C100800080008005E
:020000040001F9
:04000E00E4CFFFDB61
:00000001FF
