:10000000000080314C2808007E14803120007F08D9
:10001000FD00911E14282100911E14282000911229
:1000200085318B25803147282000111E2028210092
:10003000111E2028200011128F31F6278031472809
:100040002000911D252891114728111F33281113D5
:10005000210011130130FC007C08F407031D472820
:100060000130F40247280B1D3A280B118F31AD27C0
:1000700080314728111C442811108F31B02780315E
:1000800086316826803147280000000000007D0886
:100090002000FF007E10090080314E2810308400BF
:1000A00023308500E030FE000030FF008731E72775
:1000B0008031F001F101F201F301F401F501F601E3
:1000C00039308400003085001230FE000030FF001F
:1000D0008731E7278031A030840000308500503020
:1000E000FE000030FF008731E7277E1020008431BA
:1000F000672C8F31ED27803120002208B4002108C1
:10010000B3005B30AD00B8010030A03E860087012F
:100110002D0881005230AD000130AE002E08B80726
:100120003808A03E860087012D0881003A30AD00D6
:100130000130AE002E08B8073808A03E86008701BF
:100140002D0881003308A1003408A200A301A401F6
:100150000030A8000030A7000430A600E330A5005E
:1001600086313826803120002408B2002308B100EF
:100170002208B0002108AF003008AD002D08AF0004
:100180003108AD002D08B0003008A2002F08A100F2
:100190008431DA24803120002108B5002208B6001D
:1001A0002308B7002030AD000130AE002E08B8079C
:1001B0003808A03E860087012D088100360E0F39D1
:1001C0004A3E840082300318013E85000008AD00DD
:1001D0000130AE002E08B8073808A03E860087011F
:1001E0002D0881002E30AD000130AE002E08B8077A
:1001F0003808A03E860087012D08810036080F3997
:100200004A3E840082300318013E85000008AD009C
:100210000130AE002E08B8073808A03E86008701DE
:100220002D088100350E0F394A3E840082300318B4
:10023000013E85000008AD000130AE002E08B80771
:100240003808A03E860087012D08810035080F3947
:100250004A3E840082300318013E85000008AD004C
:100260000130AE002E08B8073808A03E860087018E
:100270002D0881005630AD000130AE002E08B807C1
:100280003808A03E860087012D088100491976298B
:100290000A30A1000030A2003408A4003308A300F3
:1002A00087311B27803120002208B4002108B300C9
:1002B0002030B3071C30B43D0630B436B30C890B84
:1002C0005D2901303402003003193302031C6C290C
:1002D000FF30B3000030B4003308AD00AE01AD35DF
:1002E000AE0DAD35AE0DAD35AE0D93292830A10064
:1002F0000030A2003408A4003308A30087311B2774
:10030000803120002208B4002108B3000830B43640
:10031000B30C890B87293308AD00AE010530AD352C
:10032000AE0D890B8F292D08AF002E08B0003008C4
:10033000A2002F08A1008431DA2480312000210896
:10034000B5002208B6002308B7002030AD00013008
:10035000AE002E08B8073808A03E860087012D0899
:100360008100360E0F394A3E840082300318013E68
:1003700085000008AD000130AE002E08B80738082F
:10038000A03E860087012D08810036080F394A3EBD
:10039000840082300318013E85000008AD00013062
:1003A000AE002E08B8073808A03E860087012D0849
:1003B0008100350E0F394A3E840082300318013E19
:1003C00085000008AD000130AE002E08B8073808DF
:1003D000A03E860087012D08810035080F394A3E6E
:1003E000840082300318013E85000008AD00013012
:1003F000AE002E08B8073808A03E860087012D08F9
:1004000081007530AD000130AE002E08B807380805
:10041000A03E860087012D0881007330AD000130B9
:10042000AE002E08B8073808A03E860087012D08C8
:1004300081005D30AD000130AE002E08B8073808ED
:10044000A03E860087012D0881000A30AD000130F2
:10045000AE002E08B8073808A03E860087012D0898
:1004600081000D30AD000130AE002E08B80738080D
:10047000A03E860087012D0881000130AD002D08C7
:10048000B8073808A03E860087018101330887310C
:10049000372708003034313432343334343435348F
:1004A00036343734383439344134423443344434C4
:1004B0004534463400345B3456343A3420344E34B8
:1004C00065346D3465347334693473342034523494
:1004D000653470346C346134633465346D34653440
:1004E0006E34743420343134363446343134383454
:1004F000343437342034763432342E3432342E349B
:1005000030342034323430343134363430343434CE
:10051000323435345D340A340D3400345B344834BD
:100520003A34203448342D3465346C3470342034FB
:1005300056342D3465347234733469346F346E3408
:10054000203445342D34633468346F3420345234CD
:100550002D34653470346F34723474342034503434
:100560002D3465347234633465346E34743420341D
:10057000503457344D345D340A340D3400345B3418
:1005800050343A3420343134303430342034703400
:1005900065347234633465346E34743420345034CA
:1005A00057344D34203464346534613463347434E6
:1005B0006934763461347434653464345D340A34B7
:1005C0000D3400345B3450343A3420343134303418
:1005D00030342034703465347234633465346E34AE
:1005E00074342034503457344D34203461346334FF
:1005F00074346934763461347434653464345D340D
:100600000A340D3400345B3445343A3420344D34EC
:10061000653473347334613467346534203465343D
:10062000633468346F342034643465346134633443
:1006300074346934763461347434653464345D34CC
:100640000A340D3400345B3445343A3420344D34AC
:1006500065347334733461346734653420346534FD
:10066000633468346F3420346134633474346934EF
:10067000763461347434653464345D340A340D3452
:1006800000345B3452343A3420345234653470349C
:100690006F347234743469346E34673420346434A3
:1006A0006534613463347434693476346134743459
:1006B000653464345D340A340D3400345B345234B0
:1006C0003A3420345234653470346F3472347434B4
:1006D00069346E346734203461346334743469347B
:1006E000763461347434653464345D340A340D34E2
:1006F00000345B343F343A3420344E346F34743435
:10070000203469346D3470346C3465346D34653440
:100710006E347434653464345D340A340D3400341A
:100720005B343F343A3420344E346F3474342034E4
:100730007234653463346F3467346E3469347A34B8
:10074000653464345D340A340D3400342000491CAF
:10075000D42BAB014A082B020318CC2B2B08C83E24
:10076000860087010A3001060319C62B2B08C83EF4
:10077000860087010D3001060319C62B2B08C83EE1
:1007800086008701010885314A2583310130200028
:10079000AA002A08AB07AA2B0A3085314A258331E3
:1007A0000D3085314A2583315B302100480603191D
:1007B0004F2C642C8E302000A4008230A50087319D
:1007C00052278331642C5B302000A4008230A500C6
:1007D000873152278331642C200049080139AA004F
:1007E0000130AA0649082A06FE392A06C900491C12
:1007F000012C2330A4008330A50087315227833198
:10080000642C03302000A4008330A50087315227D8
:100810008331642C2000491D152CE230A400823065
:10082000A500873152278331642CBF302000A400FB
:100830008230A500873152278331642C2000490C77
:100840000139AA000130AA06AA0D49082A06FD3975
:100850002A06C900C91C342C5E30A4008330A500D0
:10086000873152278331642C41302000A40083302B
:10087000A500873152278331642C79302000A400F1
:100880008330A500873152278331642C90302000BB
:10089000A4008330A500873152278331642C2100C6
:1008A0004908423A03193D2C073A0319EC2B0D3A3B
:1008B0000319DA2B183A03190A2C023A03191E2CD1
:1008C000043A0319E32B462C8F31B92708008F31E6
:1008D000B62784312000CB01CB0ACC01CC0ACD0154
:1008E000CD0AC101C201C301F401C401C5018631B1
:1008F000682684318F31BC2784318F31B027843111
:10090000B52C8731FF27843101302000C402440810
:100910000319B52C0000B52C8F31CB278431013061
:100920002000C50245080319B52C0000B52C8F31F5
:10093000C82784310130F40274080319B52C000073
:10094000B52C8F31BF27843101302000C10241080E
:100950000319B52C0000B52C8F31C227843101302A
:100960002000C2024208031D00008F31B3278431EA
:1009700020004408031D812C20004508031D8C2CF9
:100980007408031D972C20004108031DA12C200092
:100990004208031DAC2C200043080319B52C8F31ED
:1009A000C527843101302000C30243080319B52C48
:1009B0000000B52C00302000A7000030A800003057
:1009C000A90027302202103003192102031C052D33
:1009D0001030A1022730A23B0030A70700300318D7
:1009E0000130A807013003180230A907E12CE830D4
:1009F000A1020330A23B0030A707103003181130CA
:100A0000A807003003180130A90703302202E8309C
:100A100003192102031C1B2DF72C6430A1020030A6
:100A2000A23B0030A707013003180230A8070030AE
:100A300003180130A9070030220264300319210293
:100A4000031C312D0D2D0A30A1020030A23B1030C5
:100A5000A707003003180130A80700300318013041
:100A6000A907003022020A30031921020318232D9E
:100A70002108A4002208A500A6012408A70725082C
:100A8000A83D2608A93D2708A1002808A20029089A
:100A9000A30008002000A30021001112751C602D86
:100AA00001302000A1002108C807031D592D013085
:100AB000C8023F088600400887002308810008001C
:100AC00073082000C0007208BF0072088600730817
:100AD0008700230881000130F2070030F33D7F30AA
:100AE000A1002330A20073082202031D792D720891
:100AF000210203187F2D2330F3001030F20071081B
:100B00007306031D852D7008720603197514F51000
:100B100021001116080023009D1C9A2D1D121D1680
:100B20000130FA007A082000C707031D08000130D1
:100B3000C70208001D1DAA2D1908FA007A08FB003B
:100B40000130FA007A082000C607031D08000130B2
:100B5000C6020800751DB42D0130FA007A08F607A8
:100B6000031DB42D0130F6021908FA007A08FB00C3
:100B70007B088531CA2585315D307B06031D080061
:100B80000130FA007A082000C507031D0800013073
:100B9000C5020800F900751DDD2D0130F70077084A
:100BA000F607031DD52D0130F60220003B08860014
:100BB0003C08870079088100080020003E08BC003E
:100BC0003D08BB003D0886003E088700790881008B
:100BD0000130BD070030BE3DEF30F7002330F80094
:100BE0003E087802031DF62D3D0877020318FC2D00
:100BF0002330BE008030BD003A083E06031D022EA1
:100C000039083D0603197515F511080020008C01FF
:100C10008D01FD3021008C00F4308D000130230067
:100C20008C008D01803022009D0001309E0021004B
:100C3000910120009101C0308B008F31DA2786317D
:100C40008F31B927863187318227863120004910BC
:100C5000C91487316B27863121001A1B1A1C2C2ED0
:100C60005B302000A4008230A500873152270800A5
:100C700000302000AC000030AB000030AA00003093
:100C8000A900211C4B2E2508A9072608AA3D2708E4
:100C9000AB3D2808AC3D0130A535A60DA70DA80D2C
:100CA000890B4C2E0130A436A30CA20CA10C890B8D
:100CB000532E2408230422042104031D412E2C0852
:100CC000A4002B08A3002A08A2002908A1000800FC
:100CD00001302000CB02031D772ECB01CB0A01305F
:100CE000A1002108C107031D772E0130C102013088
:100CF000CC02031D872E0430A1002108CC00013056
:100D0000A1002108C207031D872E0130C202013055
:100D1000CD02031D0800C830A1002108CD0001301C
:100D2000A1002108C307031D08000130C302080009
:100D3000F51D9C2E003008002000390886003A0876
:100D400087000108A1002108A3000130B907003085
:100D5000BA3DEF30A1002330A2003A082202031D61
:100D6000B32E390821020318B92E2330BA0080307F
:100D7000B9003E083A06031DBF2E3D083906031987
:100D8000F51575112308080087316B27863122007D
:100D90008D19CD2E22008D15CF2E22008D11200011
:100DA000C91C0800AB015830AA002A08AC00283042
:100DB0002B02031808002C08031908002B08A03E7A
:100DC000860087010108AA002A08AC002C0885319A
:100DD0004A25863101302000AA002A08AB07D72E09
:100DE000F51CF42E0030080070088600710887009A
:100DF0000108F7007708F9000130F0070030F13DF5
:100E00007F30F7002330F80071087802031D0A2FA5
:100E1000700877020318102F2330F1001030F00013
:100E200073087106031D162F720870060319F51456
:100E30007510790808002000A501A601211C242FA7
:100E40002308A5072408A63D0130A335A40D890B6E
:100E5000252F0130A236A10C890B2A2F210822044C
:100E6000031D1E2F2608A2002508A100080020004F
:100E7000A300491D3D2FD7303E2FD53021009500CE
:100E800020002308031908002303FF3AFF3EA100B6
:100E90002108A2002208950022008C140D140B11C9
:100EA0008B16080020002508A7002408A600A40A25
:100EB0000319A50A26088400270885000008A80051
:100EC0002808A900290803190800200029088531ED
:100ED0004A258731522F20000C1A782F4919080013
:100EE0004915E230A4008230A5008731522708005E
:100EF000491D08004911BF30A4008230A500873188
:100F000052270800443023009B009C0148309F007A
:100F100024309E0090309D008F31E6278731873145
:100F2000AA2787318731BA27210091160800863118
:100F3000982687312000AC002C08AD002D088731A1
:100F4000CA2787315D3020002D06031D972F83317E
:100F5000A62308002330F1001030F0002330F30006
:100F60001030F20023302000C0007F30BF00751029
:100F7000F514080023302000BA008030B900233077
:100F8000BE008030BD002330BC00EF30BB007511C7
:100F9000F51508002000A2002208A1004A08C83E5A
:100FA00086008701210881000130A1002108CA07BD
:100FB000080022008D18DF2F22008D14E12F22005F
:100FC0008D102000491908008F31D62708006400D1
:100FD000800101310130FE020030FF3B7F087E04BA
:100FE00003190034E82F3030200098007830960044
:100FF000EC3097002100111420001814080008009C
:101F5A008F31CE2708008731F3270800803103200C
:101F6A0008008F31D22708002000CA0108008631F4
:101F7A00062608008F31E02708008731D927080094
:101F8A008631C426080080317920080087319727D6
:101F9A00080022008C100D100800703021009900F2
:101FAA000800210011179D140800013021009D002E
:101FBA00A0309E0008002000491D08008F31D62756
:101FCA00080075122000C701C601F601C801080001
:101FDA0021001C082000A20021001B082000A100EB
:101FEA000800F51CFB2F2100111208008631F0268B
:061FFA0023009A0008001C
:020000040001F9
:04000E00E4CFFFDB61
:00000001FF
