:10000000000080314C2808007E14803120007F08D9
:10001000FD00911E14282100911E14282000911229
:1000200085319D25803147282000111E2028210080
:10003000111E2028200011128F31DE278031472821
:100040002000911D252891114728111F33281113D5
:10005000210011130130FC007C08F407031D472820
:100060000130F40247280B1D3A280B118F31A327CA
:1000700080314728111C442811108F31A627803168
:1000800086317B26803147280000000000007D0873
:100090002000FF007E10090080314E2810308400BF
:1000A00023308500E030FE000030FF008F31F42760
:1000B0008031F001F101F201F301F401F501F601E3
:1000C00039308400003085001230FE000030FF001F
:1000D0008F31F4278031A03084000030850050300B
:1000E000FE000030FF008F31F4277E1020008431A5
:1000F000792C8731F727803120002208B4002108AD
:10010000B3005B30AD00B8010030A03E860087012F
:100110002D0881005230AD000130AE002E08B80726
:100120003808A03E860087012D0881003A30AD00D6
:100130000130AE002E08B8073808A03E86008701BF
:100140002D0881003308A1003408A200A301A401F6
:100150000030A8000030A7000430A600E330A5005E
:1001600086314B26803120002408B2002308B100DC
:100170002208B0002108AF003008AD002D08AF0004
:100180003108AD002D08B0003008A2002F08A100F2
:100190008431EC24803120002108B5002208B6000B
:1001A0002308B7002030AD000130AE002E08B8079C
:1001B0003808A03E860087012D088100360E0F39D1
:1001C0004A3E840082300318013E85000008AD00DD
:1001D0000130AE002E08B8073808A03E860087011F
:1001E0002D0881002E30AD000130AE002E08B8077A
:1001F0003808A03E860087012D08810036080F3997
:100200004A3E840082300318013E85000008AD009C
:100210000130AE002E08B8073808A03E86008701DE
:100220002D088100350E0F394A3E840082300318B4
:10023000013E85000008AD000130AE002E08B80771
:100240003808A03E860087012D08810035080F3947
:100250004A3E840082300318013E85000008AD004C
:100260000130AE002E08B8073808A03E860087018E
:100270002D0881005630AD000130AE002E08B807C1
:100280003808A03E860087012D088100491976298B
:100290000A30A1000030A2003408A4003308A300F3
:1002A00087312E27803120002208B4002108B300B6
:1002B0002030B3071C30B43D0630B436B30C890B84
:1002C0005D2901303402003003193302031C6C290C
:1002D000FF30B3000030B4003308AD00AE01AD35DF
:1002E000AE0DAD35AE0DAD35AE0D93292830A10064
:1002F0000030A2003408A4003308A30087312E2761
:10030000803120002208B4002108B3000830B43640
:10031000B30C890B87293308AD00AE010530AD352C
:10032000AE0D890B8F292D08AF002E08B0003008C4
:10033000A2002F08A1008431EC2480312000210884
:10034000B5002208B6002308B7002030AD00013008
:10035000AE002E08B8073808A03E860087012D0899
:100360008100360E0F394A3E840082300318013E68
:1003700085000008AD000130AE002E08B80738082F
:10038000A03E860087012D08810036080F394A3EBD
:10039000840082300318013E85000008AD00013062
:1003A000AE002E08B8073808A03E860087012D0849
:1003B0008100350E0F394A3E840082300318013E19
:1003C00085000008AD000130AE002E08B8073808DF
:1003D000A03E860087012D08810035080F394A3E6E
:1003E000840082300318013E85000008AD00013012
:1003F000AE002E08B8073808A03E860087012D08F9
:1004000081007530AD000130AE002E08B807380805
:10041000A03E860087012D0881007330AD000130B9
:10042000AE002E08B8073808A03E860087012D08C8
:1004300081005D30AD000130AE002E08B8073808ED
:10044000A03E860087012D0881000A30AD000130F2
:10045000AE002E08B8073808A03E860087012D0898
:1004600081000D30AD000130AE002E08B80738080D
:10047000A03E860087012D0881000130AD002D08C7
:10048000B8073808A03E860087018101330887310C
:100490004A2708003034313432343334343435347C
:1004A00036343734383439344134423443344434C4
:1004B0004534463400345B3456343A3420344E34B8
:1004C00065346D3465347334693473342034523494
:1004D000653470346C346134633465346D34653440
:1004E0006E34743420343134363446343134383454
:1004F000343437342034763430342E3433342E349C
:1005000030342034323430343134363430343434CE
:10051000313432345D340A340D3400345B344834C1
:100520003A34203448342D3465346C3470342034FB
:1005300056342D3465347234733469346F346E3408
:10054000203445342D34633468346F3420345234CD
:100550002D34653470346F34723474342034503434
:100560002D3465347234633465346E34743420341D
:10057000503457344D345D340A340D3400345B3418
:1005800050343A3420343134303430342034703400
:1005900065347234633465346E34743420345034CA
:1005A00057344D34203464346534613463347434E6
:1005B0006934763461347434653464345D340A34B7
:1005C0000D3400345B3450343A3420343134303418
:1005D00030342034703465347234633465346E34AE
:1005E00074342034503457344D34203461346334FF
:1005F00074346934763461347434653464345D340D
:100600000A340D3400345B3445343A3420344D34EC
:10061000653473347334613467346534203465343D
:10062000633468346F342034643465346134633443
:1006300074346934763461347434653464345D34CC
:100640000A340D3400345B3445343A3420344D34AC
:1006500065347334733461346734653420346534FD
:10066000633468346F3420346134633474346934EF
:10067000763461347434653464345D340A340D3452
:1006800000345B3452343A3420345234653470349C
:100690006F347234743469346E34673420346434A3
:1006A0006534613463347434693476346134743459
:1006B000653464345D340A340D3400345B345234B0
:1006C0003A3420345234653470346F3472347434B4
:1006D00069346E346734203461346334743469347B
:1006E000763461347434653464345D340A340D34E2
:1006F00000345B343F343A3420344E346F34743435
:10070000203469346D3470346C3465346D34653440
:100710006E347434653464345D340A340D3400341A
:100720005B343F343A3420344E346F3474342034E4
:100730007234653463346F3467346E3469347A34B8
:10074000653464345D340A340D3400342000491CAF
:10075000D42BAB014A082B020318CC2B2B08C83E24
:10076000860087010A3001060319C62B2B08C83EF4
:10077000860087010D3001060319C62B2B08C83EE1
:1007800086008701010885315C2583310130200016
:10079000AA002A08AB07AA2B0A3085315C258331D1
:1007A0000D3085315C2583315B302100480603190B
:1007B000612C762C8E302000A4008230A500873179
:1007C00064278331762C5B302000A4008230A500A2
:1007D000873164278331762C200049080139AA002B
:1007E0000130AA0649082A06FE392A06C900491C12
:1007F000012C2330A4008330A50087316427833186
:10080000762C03302000A4008330A50087316427B4
:100810008331762C2000490CAA002A0C0139AA0049
:100820000130AA06AA0DAA0D49082A06FB392A0694
:10083000C9008F31CC2783312000491D272CE2309D
:10084000A4008230A500873164278331762CBF3025
:100850002000A4008230A500873164278331762CE4
:100860002000490C0139AA000130AA06AA0D490846
:100870002A06FD392A06C900C91C462C5E30A40090
:100880008330A500873164278331762C41302000E6
:10089000A4008330A500873164278331762C79301A
:1008A0002000A4008330A500873164278331762C93
:1008B00090302000A4008330A50087316427833165
:1008C000762C21004908423A03194F2C073A0319A4
:1008D000EC2B0D3A0319DA2B183A03190A2C023AB9
:1008E0000319302C043A0319E32B582C8F31AF270E
:1008F00008008F31AC2784312000CB01CB0ACC011A
:10090000CC0ACD01CD0AC101C201C301F401C40169
:10091000C50186317B2684318F31B22784318F31F6
:10092000A6278431C72C8031032084310130200078
:10093000C40244080319C72C0000C72C8F31C127FB
:10094000843101302000C50245080319C72C00007E
:10095000C72C8F31BE2784310130F402740803198B
:10096000C72C0000C72C8F31B527843101302000FF
:10097000C10241080319C72C0000C72C8F31B827CA
:10098000843101302000C2024208031D00008F3173
:10099000A927843120004408031D932C200045081A
:1009A000031D9E2C7408031DA92C20004108031D63
:1009B000B32C20004208031DBE2C2000430803195D
:1009C000C72C8F31BB27843101302000C30243087C
:1009D0000319C72C0000C72C00302000A7000030EE
:1009E000A8000030A900273022021030031921028C
:1009F000031C172D1030A1022730A23B0030A7079F
:100A0000003003180130A807013003180230A9078D
:100A1000F32CE830A1020330A23B0030A7071030CE
:100A200003181130A807003003180130A90703305C
:100A30002202E83003192102031C2D2D092D6430F8
:100A4000A1020030A23B0030A7070130031802309A
:100A5000A807003003180130A907003022026430D3
:100A600003192102031C432D1F2D0A30A10200305F
:100A7000A23B1030A707003003180130A807003050
:100A800003180130A907003022020A30031921029D
:100A90000318352D2108A4002208A500A60124086A
:100AA000A7072508A83D2608A93D2708A100280872
:100AB000A2002908A30008002000A30021001112B1
:100AC000751C722D01302000A1002108C807031DEC
:100AD0006B2D0130C8023F088600400887002308BC
:100AE0008100080073082000C0007208BF0072086F
:100AF000860073088700230881000130F207003068
:100B0000F33D7F30A1002330A20073082202031DB1
:100B10008B2D720821020318912D2330F300103021
:100B2000F20071087306031D972D700872060319F1
:100B30007514F51021001116080023009D1CAC2D22
:100B40001D121D160130FA007A082000C707031D88
:100B500008000130C70208001D1DBC2D1908FA004D
:100B60007A08FB000130FA007A082000C607031D4E
:100B700008000130C6020800751DC62D0130FA00BC
:100B80007A08F607031DC62D0130F6021908FA008F
:100B90007A08FB007B088531DC2585315D307B06DA
:100BA000031D08000130FA007A082000C507031D64
:100BB00008000130C5020800F900751DEF2D013055
:100BC000F7007708F607031DE72D0130F602200035
:100BD0003B0886003C088700790881000800200057
:100BE0003E08BC003D08BB003D0886003E0887006B
:100BF000790881000130BD070030BE3DEF30F700BD
:100C00002330F8003E087802031D082E3D087702C5
:100C100003180E2E2330BE008030BD003A083E0679
:100C2000031D142E39083D0603197515F51108002A
:100C300020008C018D01FD3021008C00F4308D00EE
:100C4000013023008C008D01803022009D00013096
:100C50009E002100910120009101C0308B008F3156
:100C6000D12786318F31AF27863187319227863160
:100C700020004910C91449118F31CC278631210039
:100C80001A1B1A1C3F2E5B302000A4008230A500E6
:100C900087316427080000302000AC000030AB0032
:100CA0000030AA000030A900211C5E2E2508A907EB
:100CB0002608AA3D2708AB3D2808AC3D0130A535E4
:100CC000A60DA70DA80D890B5F2E0130A436A30C2D
:100CD000A20CA10C890B662E2408230422042104F3
:100CE000031D542E2C08A4002B08A3002A08A200E0
:100CF0002908A100080001302000CB02031D8A2E24
:100D0000CB01CB0A0130A1002108C107031D8A2EA7
:100D10000130C1020130CC02031D9A2E0430A10023
:100D20002108CC000130A1002108C207031D9A2E22
:100D30000130C2020130CD02031D0800C830A100FD
:100D40002108CD000130A1002108C307031D0800C0
:100D50000130C3020800F51DAF2E0030080020004E
:100D6000390886003A0887000108A1002108A3007D
:100D70000130B9070030BA3DEF30A1002330A200A6
:100D80003A082202031DC62E390821020318CC2E70
:100D90002330BA008030B9003E083A06031DD22E37
:100DA0003D0839060319F5157511230808008F3120
:100DB000CC27863122008D19E02E22008D15E22EDF
:100DC00022008D112000C91C0800A5015830A40084
:100DD0002408A60028302502031808002608031955
:100DE00008002508A03E860087010108A400240809
:100DF000A600260885315C25863101302000A4003C
:100E00002408A507EA2EF51C072F003008007008FB
:100E10008600710887000108F7007708F9000130A3
:100E2000F0070030F13D7F30F7002330F800710803
:100E30007802031D1D2F700877020318232F23301B
:100E4000F1001030F00073087106031D292F72089D
:100E500070060319F5147510790808002000A50123
:100E6000A601211C372F2308A5072408A63D013021
:100E7000A335A40D890B382F0130A236A10C890BA4
:100E80003D2F21082204031D312F2608A20025082A
:100E9000A10008002000A300491D502FD730512F7A
:100EA000D5302100950020002308031908002303F2
:100EB000FF3AFF3EA1002108A2002208950022006F
:100EC0008C140B118B16080020002508A70024089D
:100ED000A600A40A0319A50A26088400270885008D
:100EE0000008A8002808A900290803190800200004
:100EF000290885315C258731642F22000D080139CE
:100F00002000A1000130A10622000D0820002106CA
:100F1000FE39210622008D002000491D08008F3176
:100F2000C8270800443023009B009C0148309F00E4
:100F300024309E0090309D008F31D7278731873134
:100F4000BA2787318731CA272100911608008631D8
:100F5000AB2687312000AC002C08AD002D0887316E
:100F6000DA2787315D3020002D06031DA72F83313E
:100F7000A62308002330F1001030F0002330F300E6
:100F80001030F20023302000C0007F30BF00751009
:100F9000F514080023302000BA008030B900233057
:100FA000BE008030BD002330BC00EF30BB007511A7
:100FB000F51508002000A2002208A1004A08C83E3A
:100FC00086008701210881000130A1002108CA079D
:100FD000080022008D18EF2F22008D14F12F22001F
:100FE0008D102000491908008F31C8270800210002
:100FF0001C082000A20021001B082000A1000800FE
:101F3E00080022008C1008008F31A02708008F3176
:101F4E00E82708008F319F2708008F31C42708002B
:101F5E002000CA01080086311826080087317D2727
:101F6E0008008731E92708008631D726080080311E
:101F7E00792008008731A7270800703021009900CA
:101F8E000800210011179D14080020000C1A0800EB
:101F9E0049150800013021009D00A0309E00080068
:101FAE0075122000C701C601F601C8010800F51C14
:101FBE00E32F2100111208008731032723009A0016
:101FCE00080030302000980078309600EC309700F2
:101FDE002100111420001814080064008001013142
:101FEE000130FE020030FF3B7F087E0403190034EF
:021FFE00F52FBD
:020000040001F9
:04000E00E4CFFFDB61
:00000001FF
